:020000041000EA
:1000000000B5324B212058609868022188439860DF
:10001000D860186158612E4B002199600221596106
:100020000121F02299502B49196001219960352056
:1000300000F044F80222904214D00621196600F024
:1000400034F8196E01211966002018661A6600F04E
:100050002CF8196E196E196E052000F02FF8012189
:100060000842F9D1002199601B49196000215960AB
:100070001A491B48016001219960EB211966A021F2
:10008000196600F012F800219960164914480160C1
:100090000121996001BC002800D000471248134993
:1000A000086003C880F30888084703B5996A0420EC
:1000B0000142FBD001200142F8D103BD02B5186610
:1000C0001866FFF7F2FF186E186E02BD00000240BE
:1000D000000000180000070000035F00212200005C
:1000E000F4000018222000A00001001008ED00E03C
:1000F00000000000000000000000000074B24E7A12
:1001000000200420F7010010CB010010CD010010E9
:10011000C9010010C9010010C9010010C901001077
:10012000C9010010C9010010C9010010CF01001061
:10013000C9010010C9010010D1010010D301001045
:10014000C1010010C1010010C1010010C101001067
:10015000C1010010C1010010C1010010C101001057
:10016000C1010010C1010010C1010010C101001047
:10017000C1010010C1010010C1010010C101001037
:10018000C1010010C1010010C1010010C101001027
:10019000C1010010C1010010C1010010C101001017
:1001A000C1010010C1010010C1010010C101001007
:1001B000C1010010C1010010C1010010C1010010F7
:1001C000EFF30580103800BE00BE00BE00BE00BECA
:1001D00000BE00BEF2EB8871BC710010DC71001033
:1001E0003802001090A31AE71E481F49086006C88D
:1001F00081F3088810471D480068002801D019487D
:10020000F3E70DA40ECC002902D000F012F8F9E7B4
:100210001749184A002000E001C19142FCD116495B
:100220008847164988471649884700BEFDE701C937
:1002300001C29A42FBD37047DC710010C00000205D
:10024000601000207C8100100000042000000420C9
:100250007C81001000100420001004200000000029
:10026000704700000000000008ED00E0000000D032
:10027000601000205C1F00208D3D0010D502001092
:10028000853D0010F8B5C04606480749091A8B108D
:10029000C90FC91810B5491003D0044B002B00D06A
:1002A000984710BD60100020601000200000000082
:1002B000054B10B5002B03D00449054800E000BFF2
:1002C000FFF7E2FF10BDC04600000000F81E00204E
:1002D0000C6B0010F0B5DE4657464E464546E0B57D
:1002E00083B003F07DFEFA20C00000F045FE192027
:1002F00000F040F8D0278023FF259B043F067B6257
:100300009846BB61154B164E9B46164B9A46164BAC
:100310009946164B0093164B019303F065FE284057
:10032000040002000100300003F06AFF652C09D0D0
:10033000762C0DD0642CF0D143465046BB6103F0BF
:10034000DDFEEAE7434658467B6103F0D7FEE4E76B
:100350004A460099019803F053FFDEE7386B00101E
:10036000106B0010486B00105C6B0010646B001089
:10037000746B00100123D0228340120693629361B4
:10038000084A83009A1811684022514080320A407E
:100390000549C0005B181A60044BC0180523436070
:1003A0007047C04604C0014004D0014000400140F5
:1003B0008023DB051868000F7047C0460FB400B5F6
:1003C000084883B003F09AFE049B002B07D005A9D0
:1003D0001800019103F0BCFC034803F08FFE0120DC
:1003E00003F0CEFCA06B0010B06B001070B58C4613
:1003F0001600EFF3108472B60F490B68002BFCD087
:10040000BFF35F8F6346DB08C5180722C05C6346F5
:100410001A40012393401A000240034207D11843B7
:100420002870BFF35F8F0A6084F3108870BD614647
:100430003000FFF7C3FFC0462C0100D0F8B5CE4610
:1004400047468C4680B51C00EFF3108872B61C49F5
:100450000B68002BFCD0BFF35F8FA24221D807238B
:10046000994602E00132944218D3494601261140D0
:100470008E40D308C718C35C1E42F3D1100033432B
:100480003B70BFF35F8F00220D4B1A6088F310881A
:1004900000280EDBC0BCB946B046F8BD0120404282
:1004A000EFE7BFF35F8F00230B6088F31088012014
:1004B00040426346002BEDD00898FFF77FFFC0460F
:1004C0002C0100D0044A1078431CDBB2172B00D952
:1004D000102313707047C046980F002000B5054BDD
:1004E00083B00100009318221F230348FFF7A6FFE3
:1004F00003B000BDB46B0010881A00200021044B2B
:10050000044ABFF35F8F02C39342FAD17047C046DB
:10051000000100D0800100D0084B094A1360094A4D
:100520001360094A1360094A1360094A1360094AB3
:100530001360094A1360094A136070478080808005
:1005400000E400E004E400E008E400E00CE400E083
:1005500010E400E014E400E018E400E01CE400E033
:100560001F2318401E3B8340002905D0C021044AA8
:100570004900535013607047802201498B50FAE7BD
:1005800000E100E001228240034B1B6813405A1E29
:100590009341D8B27047C04600E100E00123834098
:1005A000014A13607047C04600E200E0054B10307E
:1005B0009B688000C358044A00209B1A2F229A424D
:1005C0004041704700ED00E09C0F002070B50D0029
:1005D000EFF3108672B60F4A1368002BFCD0BFF3FE
:1005E0005F8F0D4B10309B6884001B590B4A934260
:1005F00003D09D4201D001F013F8074B9B681D51B9
:10060000BFF35F8FBFF35F8F0022024B1A6086F348
:10061000108870BD240100D000ED00E0C101001081
:10062000F0B5DE4657464E464546E0B5824683B0B5
:100630008B461700EFF3108872B6604A1368002BE0
:10064000FCD0BFF35F8F00255D4B5D579946002DB1
:1006500000DA9AE04A466B005A4C5E19B6000193E4
:10066000A31900939B791370574B9A685346103324
:100670009B00D15899460B1B2F2B32D9534B9942D3
:1006800000D098E0019B0236ED18514BAD0063534A
:10069000504BA619043B9B1B4F4A1B055B0D65196C
:1006A00013436B804D4B0121AB80FF23AB715B4645
:1006B000AB60009BEF710B4319004A46424B9B68AD
:1006C0009950BFF35F8FBFF35F8F00223B4B1A60DF
:1006D00088F3108803B0F0BCBB46B246A946A046DA
:1006E000F0BD01200A008243D379B446BB422DD825
:1006F0003B4BB51C190013001B1B5B415943090DF3
:100700008C46334B6519A353324B0099043B5B1B5A
:100710001B05314D5B0D2B4304364B80A619131F6F
:100720009B1B1B055B0D1D4363468B715B468B60FA
:100730002C4B8D80CF7113600143BEE75800C01869
:1007400080002018C679BE4225D902000623D35660
:10075000002BF3DA9A46131D9C4623486346009EFD
:100760009571043EF61A36051B4B760D1E43019B10
:1007700096805A1953469200A418A3715B46194AF1
:10078000A0802260E771A36097E700F049FF002591
:100790004B465D575EE766469A46131D9C46908819
:1007A000043640050015A6196044801B00050A4E5A
:1007B000400D3043D2E700F033FF63E7240100D05F
:1007C000551F00209C0F002000ED00E0C10100102B
:1007D00000A1FFFFCC0F002000E0FFFF01BDFFFFE5
:1007E000AAAA00000148804701BD0000012303437D
:1007F00070B59C46EFF30581EFF3108572B6214A80
:100800001368002BFCD0BFF35F8F1F4B04001F4AFF
:10081000E41A64416243120D1D4C8900A66852B26D
:10082000765866451CD00621595691421CD012219B
:100830005956914222D01E215956914220D02A2148
:1008400059560324914210D0124B19781A708171B5
:10085000BFF35F8F00220B4B1A6085F3108870BDC9
:10086000A3680D4C5C50EFE7002461000919890072
:100870005B18FF21997109499980E5E70124F4E7A4
:100880000224F2E7240100D09C0F0020AAAA000055
:1008900000ED00E0551F0020C101001001BDFFFF69
:1008A00000B5074B83B001000093002205230548E3
:1008B000FFF7C4FD002801DB1F23181A03B000BD99
:1008C000D06B0010591F0020024BC918890001602D
:1008D0007047C0464000003470B5114C114DAC4219
:1008E0000FD2FF262368002B0CD0FFF7EBFD010091
:1008F0002000FFF7E9FFA680BFF35F8F0834AC420A
:10090000F0D370BDFFF7DEFD01002000FFF7DCFF34
:100910002671BFF35F8F0834AC42E3D3F1E7C046E2
:10092000581000206010002010B50400FFF7CAFD29
:1009300001002000FFF7C8FFFF232371BFF35F8F83
:1009400010BDC04610B504000120FFF7C7FD034BE2
:10095000C01880002060BFF35F8F10BD40000034DE
:10096000034BC91889000160BFF35F8F7047C04611
:10097000400000340A4B1968EFF3108072B60A6821
:10098000002AFCD0BFF35F8F1B68BFF35F8F00228C
:100990001A6080F3108840BF002000217047C046D5
:1009A000341F0020F0B5DE4657464E464546E0B5BA
:1009B00085B0EFF3058303221A40B34B91005F58D3
:1009C000012393409B4602925A468846AF4B1A60D9
:1009D000AF4B03935B46AF4843630823FE5E002E94
:1009E00037DABB881BB2002B00DBA4E0BB79002BFD
:1009F00000D0E5E00823F95E002920DB4B007A698E
:100A00005B18DB00D3189D68DC686B1C00D104E127
:100A1000A04801004144826A0B69AE1A9B1A9E42AB
:100A200015D30123026A029883401A420FD09948D5
:100A300000F0AAFB8C4202DCCCD18542CAD940BF6F
:100A400005B0F0BCBB46B246A946A046F0BD0D615C
:100A5000EDE77A69730091469B19DB0099444B4698
:100A60009C68DD6800F090FB8D42BADC00D1F6E0B6
:100A7000002D00DADBE04A464B4652691B6992467C
:100A8000039A934200D1CCE04A460821785E52880E
:100A90000004514610439847009001910099019A33
:100AA0000B00134300D1C2E013000A00002B00DB4F
:100AB000D9E020002900801A99414B469860D960FE
:100AC00000229B5E002B00DA8BE75D007C69EA1850
:100AD000D200A21800949468D268A2468A4200DD2F
:100AE0007FE702D1844200D97BE70824A4463B81FA
:100AF000BC44009C00972F006546B4463E0006E0CB
:100B00005E00F218D200A2189768D268BA468A42EC
:100B100007DC00D1B4E0F318DB00E518E35E002B3E
:100B2000EEDA66464A46009F13802E80BB881BB2D1
:100B3000002B00DA5AE73A69EFF3108172B61368B6
:100B4000002BFCD0BFF35F8F0123BE885B42BB80CC
:100B500036B23B69BFF35F8F00221A6081F31088C1
:100B6000002E00DA42E73B0008333A0099467D69DF
:100B700073009B190824115FDB004846EB1800291D
:100B800013DB9C680093A446DC6806E0A34240D0D7
:100B90000023F95E3800002906DB4F007F18FF00B4
:100BA000EF19FB68A342F1DD009B068000201E5E6A
:100BB0001980002EDCDA1700BB79002B00D119E771
:100BC0000023BB710823F95E4B1C00D137E73D00C1
:100BD0000835AC467C6903E084464B1C00D109E72C
:100BE0004B005B18DB00E0180A00E15E43881BB293
:100BF000002BF1DA01256D42EE178560C6600825ED
:100C00007B5F9342E9D0634619803B8903803A8138
:100C1000E3E7BB686345BBD9C6E7631C00D0F7E6D2
:100C200005E7534650461B699847002823D14B4699
:100C30001B883A693B81EFF3108372B61168002973
:100C4000FCD0BFF35F8F49467A880A803A697E807C
:100C5000BFF35F8F0021116083F31088C1E68442E7
:100C600000D805E7BDE60B4800F08EFA009B019C1A
:100C7000C018614121E753460CCB009201930DE768
:100C8000824500D847E74CE7181F00203C7005401C
:100C9000A50900100040054070B52D4C2569002DB8
:100CA00004D00A212B48FFF70FFE70BD2A4E032106
:100CB000294800F05FFAE660FFF704FC274B0322A7
:100CC000C018D02322701B061B6801216370244BBF
:100CD0008000A3600F232061022063806369494282
:100CE000A18019800231198647311D83585218316D
:100CF0005A5275325C399952183201319952183270
:100D000001319952183201319952083518329D52E9
:100D10000231183299521832013199521832013188
:100D200099521832013199521832013199521832C0
:100D3000013199520B4B0C49DC6001303562FFF7F1
:100D400045FC01210320FFF70BFC084B1D60A8E7C1
:100D5000E40F0020341F0020004005404000003414
:100D6000FFFF1000181F0020A50900103860054083
:100D700000487047E40F0020F8B51F0008AB1B784F
:100D800004001600002B07D100F006FA32003B00E9
:100D9000121A8B41002B51DB2269EFF3108C72B6D3
:100DA0001368002BFCD0BFF35F8F0223E15E25693F
:100DB00000293ADB4B0060695B18DB00C218C35A9C
:100DC0006380BFF35F8F00232B608CF31088069B3A
:100DD0009660D7601361079B5361538801335B04AE
:100DE0005B0C181C002B1ED083B2508008041843E3
:100DF0002569EFF3108672B62B68002BFCD0BFF389
:100E00005F8FA3881380A1802369BFF35F8F0022C7
:100E10001A6086F31088237801329A400849E36803
:100E20005B181A60F8BD0120DEE7BFF35F8F002377
:100E30002B608CF3108801204042F3E70020F1E79B
:100E40003C20000070B582B000920193010002695D
:100E5000EFF3108472B61368002BFCD0BFF35F8FE2
:100E60000223C85E0D6900283FDB4A694300160073
:100E70001B18DB00D218F35A4B80BFF35F8F00239F
:100E80002B6084F31088069B1361079B5361009BC2
:100E9000019C9360D460538801335B045B0C1D1C80
:100EA000002B20D0ACB20304558023430D69EFF32F
:100EB000108C72B62C68002CFCD0BFF35F8F8C882E
:100EC000148088800A69BFF35F8F002010608CF364
:100ED00010880A7801309040CA680849521810609A
:100EE000180002B070BD0125DCE7BFF35F8F00235F
:100EF0002B6084F31088013BF2E7C0463C200000E1
:100F000010B543890A1493421ADD53009B184269B5
:100F1000DB00D3180469EFF3108C72B62268002A44
:100F2000FCD0BFF35F8F5A88090494B2090C8A423F
:100F300008D00369BFF35F8F00221A608CF310881A
:100F4000002010BD094A22435A800123026983719F
:100F5000BFF35F8F002111608CF310880278044981
:100F60009340C268012052181360EAE70080FFFF37
:100F70003C20000040787047F0B5C64600B582B00E
:100F8000040000F009F9FA2206000F0020000023F7
:100F90000021920001F0BCFA8019794104000D1E75
:100FA00002DA01242E4D644206267642F7173619DE
:100FB0006F41AF4214D811D000F0EEF832003B0080
:100FC000121A8B41002B15DC002B46D02000290083
:100FD00000F022F902B080BCB846F0BDA642EBD9C1
:100FE0000026002700F0D8F832003B00121A8B418F
:100FF000002BE9DD00F0D0F832003B00121A8B41E3
:10100000002B0ADB00230193164B32000093164895
:101010003B00FFF717FF0130D8D000233900B0465E
:101020009C46124A1248536A994204D8966A464529
:10103000CCD29942CAD10668EFF3108772B63368F2
:10104000002BFCD0BFF35F8F0368BFF35F8F664652
:101050001E6087F3108820BFE5E7002AB6D0C9E7F5
:10106000FFFFFF7F75090010E40F002000400540DE
:10107000341F0020F0B5CE46474680B504000D0071
:1010800085B0EFF305868946002E10D03649002042
:101090004B6AAB4206D38A6A5B1B591E8B41A24244
:1010A0004041184305B0C0BCB946B046F0BD2F4F13
:1010B000FB683A7898461800039200F065F8039AA6
:1010C000131D42469B009B5822001B1A9C462B0076
:1010D000121A8B419E4210DC0DD020BF224A002004
:1010E000536A4B45DED3926A5B1B591E8B41A24269
:1010F00040411843D6E79445EFD900F04DF822005F
:101100002B00121A8B41002B1BDB00230193184B81
:101110002200009338002B00FFF794FE002810DD1A
:10112000114B5A6A4A451CD39B6AA34217D301004C
:101130003800FFF7E5FE0C4A0020536A4B45B1D357
:10114000D1E7094A0020536A4B45ABD30020926A8D
:101150005B1BA24240415A1E93411843A2E74A45F5
:10116000E5D120BFE3E7C04600400540E40F002082
:101170007509001010B5024A0248FFF737F910BD93
:10118000EC6B00108C1A00200300416A0A00986A78
:10119000596A8A42FAD17047034B596A0A00986A21
:1011A000596A9142FAD170470040054070B5050078
:1011B0000E00184A536A1900946A536A8B42FAD196
:1011C000200019002C00350024184D41AB4216D8E0
:1011D00013D0104B2A005B6A9D4203D90D494B6A1C
:1011E0009342FCD3934207D10A4A02E0516A9942E2
:1011F00002D1916AA142F9D370BDA042E9D9054B51
:101200005B6A1C005A1CEFD0012201246442E517DE
:101210005242E3E700400540064A536A9942FCD82F
:1012200007D1044B02E05A6A914202D19A6A904275
:10123000F9D8704700400540F8B5DE464E464546B1
:101240005746E0B505008B4618000A99914600F014
:101250003BFB0A9B6C001E026419304BA400E4188F
:10126000636880469E4200D966602F1FFBB29A4693
:10127000012B2FD9C0238022294FAD009B01795922
:101280001201E3181A6000291BD14B4622685B014A
:101290005340E022134080225201A21813605346AB
:1012A000012B2FD9802380229B01E31812011A60A1
:1012B000434666607B51F0BCBB46B246A946A04699
:1012C000F8BD786900F000FB013043001B18033BB8
:1012D000FDD2DAE75B46012BCCD1C02303229B0170
:1012E000E3181A60023AA3681A42FCD04A462368FF
:1012F00052015A40E023134080225201A218084FA5
:101300001360AD0058460323216841400B40136031
:1013100001228240A3681A42FCD0C3E7008000404B
:10132000901A0020F0B5D6464F46464644009846EF
:101330002418324BA400E41863688A469146C0B56D
:10134000FF2B02D880235B006360061FF6B2012EDC
:101350002FD9C02380222A4F85009B017959120181
:10136000E3181A6000291BD14B4622685B015340E9
:10137000E022134080225201A2181360012E30D9BE
:10138000802380229B01E31812011A6080235B00F6
:10139000636043467B51E0BCBA46B146A846F0BD07
:1013A000786900F091FA013043001B18033BFDD22D
:1013B000DAE75346012BCCD1C02303229B01E3186B
:1013C0001A60023AA3681A42FCD04A4623685201C6
:1013D0005A40E023134080225201A218084F1360A4
:1013E000850050460323216841400B4013600122D1
:1013F0008240A3681A42FCD0C2E7C0460080004089
:10140000901A0020014B8000C0587047901A0020AD
:10141000F0B5C646040000B52348160098460D00F6
:1014200000F052FA0100300000F04EFA4346069AEE
:101430001B04120313439C4623680600002B22DB87
:101440001A4B1B48E218531E9A4180235242120B3A
:101450009B011203D218174B1A60174B1A60130026
:1014600001688B43FBD12122144B2560E318A66051
:101470001A602268002AFCDA6246E26008221A60DA
:1014800080BCB846F0BD3F2322681340AB42D7D1A1
:10149000A3681B051B0D8342D2D1EE22E368D20262
:1014A00013406345CCD1EBE7001BB7000040FDBF04
:1014B00008C0004000E0004000F0004004300000A0
:1014C00010B580241C4BE4051C6000281AD00123B1
:1014D0001A4C18431A4BDC611A4C44401C62596286
:1014E00098628021144BC905196017481749086094
:1014F000E021C9041960002A07D18022144B12068A
:101500001A6010BD0E4BD861EBE753019B1A9B008C
:101510009A18802312015B049A4209D213000D49E4
:101520000B60074B5A608022094BD2051A60E8E72E
:10153000094B1A00F3E7C04600B00540D3C007B01E
:10154000008005402D3FF84FFCFF010008200140BE
:1015500000A00540F01E0020FFFFFF008023024A8C
:101560009B000B43D362704700800540002310B5F9
:101570000100988A1B8B984710BDC046162310B5F2
:10158000010018885B88984710BDC046F8B54746EB
:10159000CE4680B50F1E18D014239946043304009C
:1015A0000025012698464B461888434621681B882B
:1015B000984701C4431E984101350640AF42F2D11D
:1015C0003000C0BCB946B046F8BD0126F8E7C046B9
:1015D000002370B504000D00988A05491B8B9847BD
:1015E00003000020002C01DB0130A04029009847B7
:1015F00055420000AA23064A1B0113608D235B009D
:10160000D3600449044B19605368002BFCDA70471F
:101610000040024000B0FA00006002407047C0463F
:1016200010B50148FEF7CAFE106C001070B5074DEA
:10163000074EB54209D20024013E761BB60801369A
:1016400008CD01349847B442FAD170BDC86A001081
:10165000046B0010054B064A06491A60064A074B00
:101660001A6010000B689843FBD1704700E00040FF
:10167000BFCDFBFE08C00040FE7F3C0000F00040F4
:10168000044BDB6C002B03D18022034BD2021A6087
:101690007047C046000011504C201150044A054BC1
:1016A0001A60054A1368DB018033FBD17047C046DE
:1016B000FFFFFF0100F0004008C000404022034B44
:1016C0009A675A671A67DA667047C04600F00140A9
:1016D00010B5FEF713FF10BD70B52849284D294EEF
:1016E0006D1AAC102200302C00D93022300092004C
:1016F00000F080FFBC2D3DD823002A3B224A052B59
:101700001DD9302075196D07A446001BEB0F002D65
:1017100003DA611C8C46A1007250C01AE3189B00CA
:101720004108F318C900C9181A605A600833994271
:10173000FAD1012303421DD0984360440400A30062
:10174000F250631C2F2C15D09B00F250A31C2E2CA2
:1017500010D09B00F250E31C2D2C0BD09B00F250BC
:10176000231D2C2C06D09B00F250631D2B2C01D086
:101770009B00F250054B9E6070BDC04600010010FA
:10178000C001001000000020C101001000ED00E0C9
:10179000002310B5294C82B0A367FFF72BFF01226D
:1017A000274B1A60636C012BFCD10322254B1A6076
:1017B000224A936B012BFCD1013300930121224A71
:1017C00022480433FFF724FE052301210093204A19
:1017D0002048FFF71DFE0022022104201E4BFFF7C8
:1017E000A1FD0022012105201C4BFFF79BFD0022DB
:1017F000002107201A4BFFF795FD00220021082049
:10180000174BFFF78FFD8023DB00009300220021A0
:101810000920134BFFF710FD0022104B002106207A
:10182000FFF780FD0420FFF7EDFD0E4900F04CF8B6
:1018300001000020FFF792FE02B010BD00800040C2
:101840003CB0004030B00040002F6859008002409A
:10185000008C864700C00240001BB7004059730748
:10186000006CDC0240420F0001480421014B184784
:10187000001000208D150010124A936F9B0815D29E
:101880009066D166002905D0FFE7FFE7FFE7516FBB
:10189000106F704704B580210906C2175140002817
:1018A00000D0C84305F0D0F8002104BDF0B5146E97
:1018B000556E576F166FFFF7E3FF1466556657674F
:1018C0001667F0BD000000D0114A936F9B0813D239
:1018D00010665166002905D0FFE7FFE7FFE7516F6B
:1018E000106F704704B5002801D00020C04305F0F8
:1018F000ABF8002104BDC046F0B5146E556E576FAD
:10190000166FFFF7E5FF1466556657671667F0BD5B
:10191000000000D094464A4A926F9208624601D273
:1019200028E0C046F0B5464E346E756E776F366F60
:1019300000F020F89446424A1466556657671667C9
:101940006246F0BD94463E4A926F9208624601D2CA
:1019500054E0C046F0B53A4E346E756E776F366F10
:1019600000F04CF89446364A146655665767166779
:101970006246F0BD002B24DB11D000293EDA00B511
:10198000C943404200D1013100F038F8C943404218
:1019900000D10131DB43524200D1013300BD002AA6
:1019A000EBD1002801D1002905D00020C90FC907BB
:1019B00001D1C043410800B505F03EF800220023E4
:1019C00000BD00B500290ADBDB43524200D10133E0
:1019D00000F014F8C943404200D1013100BDC943B1
:1019E000404200D10131DB43524200D1013300F0CB
:1019F00005F8DB43524200D1013300BD002923D159
:101A0000002B18D1002A0CD0BC460D4F38667A66E0
:101A100000210023FFE7FFE7FFE77A6F386F674693
:101A20007047002801D00748010000B505F004F810
:101A30000022002300BD02000B000020002170479F
:101A4000000000D0FFFFFFFF002B00D0BFE0130C11
:101A500028D1002AE7D080B4114F39667A66FFE7B3
:101A6000FFE730B4040C7B6F396F1B0423433B66E4
:101A70007A66FFE7FFE7FFE7C04684B27B6F3D6F02
:101A80001B0423433B667A66FFE7FFE7C04600235B
:101A90002C042D0C7A6F386F00196941B0BC704767
:101AA000000000D0F0B594460025140E01D11202BA
:101AB0000835140F01D112010435940F01D19200A1
:101AC0000235D40F01D152000135D40B0134254F1A
:101AD0007C66254C3C660E0C93B2FFE7FFE7FFE700
:101AE0003C6F6643360C7703BE467343DF0B5B04E3
:101AF000C01AB941130C7343DB18C91ACE086643E8
:101B0000360CB64493B273431F0F1B01C01AB94180
:101B1000130C73431F0B1B05C01AB941860D8F02AE
:101B20003E436643360C092D24DB520A7243801A69
:101B30007703460A6643360C16235B1BDE40DF4004
:101B4000BF1964466643821B7046043506330100A4
:101B5000D940A840C01900D30131A24206D20023C7
:101B6000F0BD0000000000D0FFFFFFFF121B01309E
:101B7000F3D3F1E709277F1BFE406446A2B272430C
:101B8000801A00D20139220C7243130C1204821AFB
:101B900099410B007046043513370100F940A84005
:101BA000801900D30131002B02D1A2420AD2F0BD2C
:101BB000013000D30131121BFAD2013BF8D1A2420D
:101BC00000D2F0BD013000D30131121BF7E7F0B5B0
:101BD0001C0C00D080E00CB400251C0A04D11B02B0
:101BE000160E3343120208351C0B04D11B01160FCD
:101BF0003343120104359C0B04D19B00960F3343F1
:101C000092000235DC0B02D192185B4101351C00B9
:101C1000971864410134464F7C66464C3C660E0C76
:101C2000FFE7FFE7FFE7C0463C6F6643360C7703EC
:101C3000BE4697B27743C01B00D20139C01B00D209
:101C400001399FB27743C91BC91B170C77437E0428
:101C5000FF0B801BB941CE086643360C0C2D33DBDD
:101C6000B644120B1F053A431B0B97B27743C01BB8
:101C700000D201399FB27743C91B170C77433E044A
:101C80003F0C801BB941860D8F023E4366432927D6
:101C90007F1BFE400C3D7746AF40BF1930BCA2B25F
:101CA000ABB272437343801A9941220C7243130CF6
:101CB0001204801A994102000B000137001BA94150
:101CC000F9D2781E0021F0BD0C277F1BFE4077461D
:101CD0007F0BAF40FF19E0E700245D1C07D0144FD5
:101CE0007D663966FFE7FFE7FFE7FFE73C6F95B2E8
:101CF0009EB265436643401BB141150C1E0C654303
:101D0000664336042F0C3E432D04401BB1419942DB
:101D100004D202000B0020000021F0BD01D190424E
:101D2000F7D3801A994101349942F2D3F6E70000C3
:101D3000000000D0FFFFFFFF48404140484018B47A
:101D40001B4B5B68FC46019308BD04DFE31F0010DA
:101D500018B4174B1B68FC46019308BD00DFED1F4C
:101D600000109446134A926F920809D2624618B442
:101D70000F4BDB68FC46019308BD0CDFA522001069
:101D80000C4AF0B5146E556E576F166F6246FFF72A
:101D9000EEFF084A1466556657671667F0BD18B41B
:101DA000034B9B68FC46019308BD08DF49210010E6
:101DB000B0120020000000D0FFB55040424050401B
:101DC00059404B40594000E0FFB5154F4C00640DA1
:101DD00003D0BC4204D10C0314D80020090D09051E
:101DE0005C00640D03D0BC4204D11C030AD800225D
:101DF0001B0D1B0501264B4009D44B4003D58B42DC
:101E000000D18242FFBD9942FCD19042FFBD0B43FD
:101E1000DB1803431343F5D0C9434918FFBD000045
:101E2000FF07000000B5FFF7CFFF804100BDC046AF
:101E300000B5FFF7C9FF01D9002000BD012000BD9A
:101E400000B5FFF7B9FF01D9002000BD012000BD9A
:101E500000B5FFF7B1FF804100BD012040054A00F9
:101E6000121804D85A00121801D800207047012017
:101E7000704700000021002805D17047C117484075
:101E8000401AFAD0C90713B5064B1B6898470CBC1B
:101E9000441CA2401005120B0349091B09051943F4
:101EA000114310BD301F00201F04000010B54C006E
:101EB000620D8023D218DB00D21A5B057E2A10DD6A
:101EC0009E3A13DACC170903490819435242D1400C
:101ED000640001341532202A05DAD04008436043FB
:101EE00010BD002010BD0846604310BDC80FC018CB
:101EF000013810BD18B4044B5B6AFC46019308BD61
:101F000024DF552400100000B0120020132370B508
:101F10001D78012D19D014DD1F48FFF72FFB060097
:101F20001E48FFF72BFB1E4C80223100200000F0E2
:101F300061FB022D2DD01B48FFF718FB1A4B1860D0
:101F400070BD1A4B164CA364F5E7184B144C236074
:101F50006360A360E36023616361A361E361236263
:101F60006362A362E36223636363A363E363236443
:101F70006364A364E36423656365A365E365236623
:101F80006366A366E36623676367A367E367A36487
:101F9000D1E7064BA364CEE753440000534600004C
:101FA000B01200204C330000301F0020B11F001081
:101FB00007B5604601880A0A0230DF2AFAD1C9B2A1
:101FC000820804D3028840880004104300E00068BF
:101FD000014A5050039007BDB01200200FB403BC5B
:101FE0000CBCF0B50124E407634000E0F0B50C0D33
:101FF000CF0F661E3605891B640503D3C9434042D3
:1020000000D30131640D03D0661CF60A07D0E41B2F
:1020100000207F00791C89078912803C24031D0D54
:10202000DF0F6E1E36059B1B6D0503D3DB4352424B
:1020300000D301336D0D03D06E1CF60A07D0ED1BE3
:1020400000227F007B1C9B079B12803D2D032F1BD2
:10205000661B58D4A446202E46DA20371400BC4014
:102060001D00BD40F24033412A4380185941CB0F37
:1020700005D0C943C04300226442504151416246E9
:102080004D0D28D10D0D07D100281FD02419404136
:102090004941013A0D0DF9D0640006D3013000D357
:1020A0000131002C01D140084000013A0BD4941CAE
:1020B000E40A04D112051144DB071944F0BDD90725
:1020C000204B194300E0D9070020F0BD0029DDD1E5
:1020D000002CDBD1F0BD0132C6074008CD072843F4
:1020E0004908002EE1D0D9E73C2E29DA203E4037BE
:1020F0001400BC4000D00124F24014431A00BB403D
:102100001C43D317ACE7AC46202F08DA2036040076
:10211000B4400D00B540F84039412843A5E73C2FB5
:102120000CDA203F40360400B44000D00124F840CF
:1021300004430800B1400C43C117EAE7100019003E
:10214000002494E70000F07FF0B50C0D661E360504
:10215000891BE60A6405640D02D0651CED0A04D0F3
:10216000002001210905803C2403A4461C0D671EA4
:102170003F05DB1BE70A6405640D02D0651CED0A10
:1021800004D0002201231B05803C240377406444D3
:1021900097B484B296B27443070C7E43150C6F4318
:1021A00080B26843361802D3012000043F1830047F
:1021B000350C00197D41844688B29AB250430C0C0C
:1021C00062431F0C7C438EB27E43921902D30126D8
:1021D0003604A4191604170C3618674101BC81B2E5
:1021E0009AB25143040C62431B0C5C4380B25843C7
:1021F000121802D30120000424181004130C4018F4
:1022000063412D185E410020474106BC88B293B25D
:1022100058430C0C6343120C544389B251435B186E
:1022200002D301210904641819041A0C0918624127
:102230006D1856410020474118BCF902720D114338
:10224000F0026A0D1043ED020A0D03D16D194041F1
:102250004941013B124E9B1B7600B3420ED26D00EA
:1022600007D30130002671416646354301D140084D
:1022700040001B05C918E4072144F0BD0BDA013307
:1022800006D1013004D101314F0D01D04908F2E7E8
:10229000E1070020F0BD013631050020EBE700002A
:1022A000FF030000F0B51C0D671E3F05DB1BE70AAE
:1022B0006405640D02D0661CF60A04D000220123D6
:1022C0001B05803C2403D0252D060026F6432E66F0
:1022D0001E096E66CE0FF619B44649004F0D02D0A6
:1022E0007E1CF60A03D000200021403F3F033E1B26
:1022F000B600B444013F7F05C91B49082E6F013663
:1023000076089C02950D25437543ED137543AD1377
:1023100001356D10F603761B0CB4CC02450D2C4331
:10232000A2B2B3B25A43270C7B43350C6F43A4B21D
:102330006C431B1902D3012424043F191C041D0CF7
:10234000A4187D4124196D41009A91B2ACB2614349
:10235000170C7C432B0C5F4392B25A43A41802D350
:1023600001221204BF182204230C52187B41019C45
:102370006C431B19520ED9010A434401A01A81B2C1
:10238000B2B2514303145A43360C734387B27743B6
:10239000D617D21900277E4136049B191704160C54
:1023A0007F185E417316ED18F301002680337541E6
:1023B000A90F06D16400690AE8055B0A184309D22F
:1023C0002FE00422944480337541A90AA8059B0A92
:1023D000184326D3404149412404009A019B0D0033
:1023E0005543641B4343E41A95B286B27543170CF8
:1023F0007E43030C5F4392B25A43B61802D30122C4
:102400001204BF183204330C52197B4152429C41D2
:10241000002C02D40022013051414008CA07104369
:10242000490802B06246D7079210084BD218084BF1
:102430009A4203D212058918C919F0BD0020002A5A
:1024400001DC3900F0BD01331905F5E7FD0300009B
:10245000FE070000002200B5203200F004F808005A
:1024600000BD000000220B150AD410B5944600F000
:1024700031F81414013400DA0021CB17144C204732
:102480000020002170476244343A0CD40C2A07DA49
:1024900004009140904052422032D440214310BD6C
:1024A000D843D94310BD203207D40C469440524241
:1024B00020321141D040204310BD0800C9172032FE
:1024C00003D452422032104110BD1800190010BD33
:1024D000872400100A0DCC0F531E1B05C91A520584
:1024E00003D3C943404200D30131520D03D0531CE2
:1024F000DB0A07D0121B00206400611C89078912C7
:10250000803A1203014BD21A70470000FF0300000B
:1025100051434343C9188C46110C83B24B4310B44A
:10252000040C614392B280B2504362431C041B0C02
:10253000001910BC59411304120CC01851416144D8
:1025400070470000132310B51C781348FFF716F8E6
:10255000012C0BD004DD01008022104800F04AF865
:102560000F48FFF703F80F4B186010BD0B4C01002C
:102570005422200000F03EF80B4B6365A365E36531
:1025800023666366A366E36623676367A367E367FF
:102590002362E361E4E7C04653460000B013002025
:1025A0004C330000301F0020AD25001007B56046F9
:1025B00001880A0A0230DF2AFAD1C9B2820804D39C
:1025C000028840880004104300E00068014A50502F
:1025D000039007BDB013002001480421014B1847A8
:1025E000101000208D150010014B1B6818470000CB
:1025F00010100020014B5B681847000010100020ED
:102600007047C046F8B5DE4657464E464546E0B5EB
:1026100099460D9B0700884693469B0728D00B9B45
:10262000002B3CD016000B9C0A9D3619321B013C36
:102630004B464146285DB847002CF7D135000D9B2D
:102640009B070ED55B46EC1A0C9BA34209D91E00D2
:102650002A004B46414620200134B8470135B44298
:10266000F6D32800F0BCBB46B246A946A046F8BD4A
:102670000B9B0C9A934214D213005D460C000B9AEC
:102680009E1A76192A004B46013521002020B847B2
:10269000B542F7D10B9BA046002BC4D1E1E7150052
:1026A000CDE75E46002BBED15D46DAE7F0B54F467A
:1026B000D6464646C0B584B09C460EAB1F78129BEA
:1026C0009146BA460D9C109E119D9B074CD4002D3F
:1026D00041D1B44248D20123129F1F40B8460C9BFF
:1026E0005F1E302303E001343B55A64201D9202C64
:1026F000F9D14346002B00D187E00C9B5F1E3023AD
:10270000A54204D830E001343B55AC422CD0202CFB
:10271000F9D1129BDB060DD5129B5B0557D4A6425F
:1027200067D0A54265D00F9B102B53D0022B5BD0F6
:10273000202C36D12023129C01930C9B4A460093F7
:10274000039463460295FFF75DFF04B0E0BCBA4610
:10275000B146A846F0BD0123129A134098460123C2
:1027600013422DD1B442BAD3129BDB061ED5129B65
:102770005B05D8D4002CD2D10F9B102B60D00F9BBF
:10278000022B71D0302301240C9A13705346002B76
:1027900011D1129B5B0740D52B260C9A631C165552
:1027A000C9E72300013430260C9AD654202CC1D01E
:1027B0005346002BEDD02D260C9A631C1655BAE714
:1027C000002F34D0013DB44200D288E795E70F9B3B
:1027D000102BAFD1129B9B063CD5202CAAD058239E
:1027E0000C9A13550134A3E7202CA3D02300013405
:1027F00007E0631E012CBFD00F9A102A36D0022AA0
:10280000D1D162260C9AD65492E7129BDB06CDD525
:10281000129B5B0500D482E785E7129A2300160716
:1028200000D488E720260C9A0133165583E70C2341
:1028300013405F1EBB41ED1AB44200D24FE75CE784
:10284000129B9B060ED478230C9A0224137030231B
:1028500053709BE7202C00D16CE778230C9A13551A
:10286000013465E75823EFE76033EDE70C9AA61EC5
:10287000B618129A920602D55822327093E778223F
:10288000327090E710B5002800D110BD01F0ECFBCC
:10289000FBE7C04610B5002803D04A680B6811005A
:1028A000984710BDF0B54E46DE4657464546E0B562
:1028B00095B083468946924698461E9A1F9B100003
:1028C0001900209EFFF7C9FA002800D0D2E11E9817
:1028D0001F990122C44B5242FFF7A4FA002800D0EE
:1028E00001E11E981F990122C04B5242FFF7B0FA36
:1028F000002800D0D6E01E981F990022BC4BFFF79D
:10290000A7FA002800D0B5E01E981F990022B94B05
:10291000FFF788FA002800D0ACE01E981F9900222B
:102920000023FFF77FFA002800D0D1E000230B93AB
:10293000229B5B0500D406260024302306E006AA6D
:10294000013417321355013E202C01D0092EF6D840
:102950001E981F99FFF7AAFAA74BF2009B180CCB01
:10296000050008920993FFF789FA02000B001E98F0
:102970001F99FFF7E4F9089A099BFFF710FA0690F0
:102980000791FFF7B7FA0700FFF774FA02000B0090
:1029900006980799FFF7D3F90022984B0690079104
:1029A000FFF756FA002800D1E9E001373800FFF7B9
:1029B00061FA02000B0008980999FFF739FA00281C
:1029C00001D000270135002E00D1B7E0069513E0B5
:1029D000172306AA9B180A21380001341D19FEF797
:1029E00073FF3031297038000A21013EFEF76CFF79
:1029F000092F00D8E1E00700202CE9D1069D202412
:102A00000CAB0693172706ABFF180DE028000A2130
:102A1000FEF732FF01343031280039550A21FEF724
:102A20002BFF051E00D1B7E0202CEFD10323229A03
:102A30001340012B17D1219B002B14D00B9B002B93
:102A400000D1E3E0219B013B2193202B0BD93023C4
:102A5000219A06E006A9013417310B55944200D3A0
:102A6000A0E0202CF6D1229B01940393219B02939A
:102A7000069B21E0229B52460493219B49460393E7
:102A800058461E9B1F9C029600930194434600F0FB
:102A900043F90400200015B0F0BCBB46B246A9467D
:102AA000A046F0BD229B5B070FD40322544B229912
:102AB000019203912199029100935246434649465F
:102AC0005846FFF79FFD0400E4E704224D4BEEE774
:102AD0001E9A1F9B00200021FFF731F901231E9051
:102AE0001F910B9324E70223229A54461A40229BFB
:102AF00006929B0700D1ACE02600434D08942F1F9F
:102B00003200E87843464946013DD8470136BD4288
:102B1000F6D1089C069B0434002BBBD05746219A63
:102B2000E31B9A42B6D915002200434649462020AD
:102B30000134D847E31BAB42F6D3ABE72800FFF7DD
:102B40009DF902000B001E981F99FFF7F8F82B4B18
:102B5000002206000F00FFF765F90CAB0693002872
:102B600000D04FE7002230003900244BFFF770F906
:102B7000002800D046E7012301359D4342E70022AB
:102B8000069807991D4BFFF74DF9002800D01AE76A
:102B9000002F59D1013716E70323229A1340012B46
:102BA00000D1A6E0202C00D15DE70B9B002B3AD092
:102BB0002D23069A1355013455E7069D202C00D18C
:102BC0001DE73023361906E006AA013417321355E3
:102BD000202C00D113E7A642F6D12E230CAA0134F3
:102BE000069293550EE7C046FFFFEFFFFFFFEF7F12
:102BF00065CDCD4165CDCDC1086F00100000E03F2F
:102C0000606C0010586C0010686C00100C23229A45
:102C1000134257D0219B013B2193A34200D916E7D1
:102C2000202C00D11FE7229B5B0704D52B23069A9B
:102C30001355013417E7229B1B0700D413E7202309
:102C4000069A135501340EE7FB0700D4BBE60137A3
:102C5000B9E6219B042B00D84EE755464F46043C6D
:102C6000E4182A004346013539002020D847AC42F9
:102C7000F7D141E70227229B55461F409B0726D0EC
:102C800006975F46234EEC1C2A00B078434649461F
:102C90000135B847013EAC42F6D1069F002F00D166
:102CA000F8E65746219AE31B9A4200D8F2E615004F
:102CB00022004346494620200134D847E31BAB425B
:102CC000F6D3E7E6219BA34200D9C0E6CBE6219BE1
:102CD000032BD5D9069754464F46033DED182200E5
:102CE0004346013439002020D847A542F7D1069F3A
:102CF000C6E7219B002B00D154E70B9B002B85D00E
:102D0000219B013B21939C4200D2A0E6202C00D0C5
:102D10004EE7A8E6646C0010F0B54546DE4657461F
:102D20004E46E0B59BB0249C259D8246884693463E
:102D3000994622002B0020002900FFF78EF800287A
:102D400000D0C1E00122200029007C4B5242FFF755
:102D50007FF8002800D0B7E0012220002900784B3E
:102D60005242FFF75FF8002800D0ADE000220023B8
:102D700020002900FFF756F8002800D0BBE1089496
:102D80000995089809998023289ADB001A400F9228
:102D90008022289E1201164032000E96289E0F00B7
:102DA0000A901E4200D0A4E00B00034300D0CBE009
:102DB000002A00D012E23200063326930223134089
:102DC0000C930223134200D00AE2279B042B00D26B
:102DD00015E200270426043B0E9300220023200066
:102DE0002900FFF71FF8002800D0C8E1554B289AAA
:102DF000134004930E9B0393269B0293089B099C0C
:102E00000093019441464B465A465046FFF74AFD0F
:102E100002002020289B0025034059424B415B4281
:102E20001840531C089341464B464530D047FB178A
:102E3000FC185C40FB0F1F270A93731E0E930AAB0E
:102E4000FF1806E020000A21FEF73EFD0400202DB9
:102E500008D00A212000FEF737FD013530317955C1
:102E6000092CEFD8052306930E9B564605930023A5
:102E700004930A3303930A9B4146029312AB0093D7
:102E800030004B46089A0195FFF710FC0C9B002B75
:102E900028D05F46279BC41BA34223D982461D002E
:102EA0003A194B46414620200134B047A542F7D895
:102EB00050465946279C421A01320023944200D3BF
:102EC00095E1013018180DE0289B009401950493BA
:102ED000279B0393269B02934B465A4641465046F6
:102EE000FFF7E0FC1BB0F0BCBB46B246A946A046CB
:102EF000F0BD01432AD10E9B3200002B00D15DE7CB
:102F00000027269B0026BB4200DD82E10022002331
:102F100020002900FEF786FF002800D04BE1289B07
:102F2000084A02961A408023DB0013430493279B30
:102F30000393089B099C00930194CDE7FFFFEF7F6B
:102F4000FFFFEFFFFFF7FFFF06232693B24B78004A
:102F5000400DC018FEF792FFB04AB14BFEF71FFFBD
:102F6000B04AB14BFEF7F4FE3F03B04B3F0B3B437F
:102F70000C900D9100220A981900AD4BFEF7DFFE70
:102F8000AC4AAD4BFEF70BFF02000B000C980D99FD
:102F9000FEF7DEFEFEF78AFF0700FEF76FFFA74A87
:102FA000A74B0A900B91FEF7FAFE0022A54BFEF705
:102FB000CFFEFEF77BFFA44A06000A980B99A34BAD
:102FC000FEF7EDFE0A900B913000FEF757FFA04A86
:102FD000A04BFEF7E4FE02000B000A980B99FEF7E7
:102FE000AEFE02000B000A900B91FEF7D8FE0C908B
:102FF0000D910A980B9902000B00FEF7A9FE002222
:10300000109011910C980D99934BFEF7AAFE002297
:10301000924BFEF79DFE02000B000C980D99FEF7F7
:10302000A0FE00228E4BFEF793FE02000B000C98D0
:103030000D99FEF796FE0A9A0B9B0C900D9180213C
:103040000020C905FEF77BFE02000B000C980D99CD
:10305000FEF77EFE02000B0010981199FEF781FE2C
:103060000022724BFEF774FE7E4B0022F6183305E9
:10307000FEF795FE02000B000A900B910898099943
:10308000FEF7D0FE002808D00A980B990022734B57
:10309000FEF767FE0A900B91013F0A990B9A0B000D
:1030A00011003A006332C62A12D802222898042658
:1030B00010400E9A0C90002A26D1279B042B05D98C
:1030C000002800D0A1E0279B043B0E93042642E099
:1030D0000222289810400E9A0C90002A13D1279BA8
:1030E000052B00D889E0002800D084E0279B052626
:1030F000053B0E9332E080231B069C46AC4463469E
:10310000089409933DE605260B4300D1F9E608989B
:103110000999554A554BFEF793FE002808D00898A8
:1031200009990022524BFEF77DFE002800D0E8E608
:10313000269B002B34D00F9B002B31D0269B013BCC
:103140002693279BB34204D90C9B002B59D0022312
:103150000C9300230E93002F00D13EE60A9A0B9B9E
:1031600008980999FEF7FDFD0022089009910023B7
:1031700020002900FEF756FE002800D136E6089C04
:10318000099D289A80203B4B00061340220004939F
:103190000E9B0393269B02932B180092019331E61A
:1031A000279BB342D5D90C9B002B2AD000230E932A
:1031B00002330C93CFE7289B2E4A8020089C099D60
:1031C0001A408023DB00134322000493279B000650
:1031D00003932B180092019302967DE6052695E64F
:1031E00000230E930233002704260C93F5E54B1EB3
:1031F0001B191B1A65E602230C930526AEE7042370
:10320000E7E5279B9B1B0E93A5E7022304260C935F
:10321000A1E7DB1B5E1E79E601FCFFFFFB799F50F7
:103220001344D33FB3C8608B288AC63F0000F03FE9
:103230000000F83F61436F63A787D23F71A379090C
:103240004F930A400000E03F1655B5BBB16B0240FA
:10325000EF39FAFE422EE63F00002C4000002440E9
:1032600000001840FF0300002D431CEBE2361A3F1C
:1032700080842E41FFF7FFFFF0B55746DE464E46ED
:103280004546E0B5A3B01F002C9B92460C93C94A5B
:10329000C94B8B460B901A60002900D1BFE1002377
:1032A00038789946002800D1C1E1C44B4C460993B7
:1032B000C34B0E935B460A9308E0220053460A99DB
:1032C0000B9DA84701343878002876D0013725288F
:1032D000F3D110239B46083B9946043B9846033B99
:1032E000002602259C463878791C0300203BDBB27F
:1032F000102B03D8099A9B00D3589F460300303BFC
:10330000092B36D900252A2800D1A7E000230D93E8
:103310002E283FD00300683BDBB2122B1BD80E9A3D
:103320009B00D3589F4663460F001E43DBE70F0008
:103330002E43D8E743460F001E43D4E75B460F00F9
:103340001E43D0E74B460F001E43CCE7802378781E
:103350005B001E4301310F00672845D82428ACD9F3
:103360000300253BDBB2422BA7D896499B00CB58E4
:103370009F460025AB005D196D002D1808780F00E1
:103380000300303B303D0131092BF3D900230D936D
:103390002E28BFD13022802052429046C0000643E2
:1033A00078780B0080444246092A00D851E12A2847
:1033B00000D15EE10F000131ACE70A9BA1469B46BC
:1033C000CA4503D801235B425344994653464A46B3
:1033D000594600200B9DA847200023B0F0BCBB46F7
:1033E000B246A946A046F0BD0300693BDBB20F2BF5
:1033F00000D962E7012199408846734A11408B4603
:10340000110042460A4200D013E10A2B2FD0072BAD
:1034100000D052E70C9D01CD002800D134E12123DA
:103420001E43B0461F260D9A12ABF618A1469446CD
:103430005946340002E0000920290AD00F26064030
:1034400032003732092E00D8073A013162540F2872
:10345000F1D863464C468B460D9322E10C9B20CB62
:10346000002D52DB78780C930F0001314EE70C9B56
:103470000D9904CB90469B46002900D128E1434694
:1034800018784144002801D100F029FC0D9A944697
:103490000A0004E059780133002900D195E19A42ED
:1034A000F8D163460D934346D31A0F93730500D4A6
:1034B0006CE10F9B0D9A934200D90F9202231A00E0
:1034C00032400C92334200D191E20C930D9BB946ED
:1034D0001E1943461B1BA84622001F000B9D08E037
:1034E000541C53460A99A847385D002800D163E16F
:1034F00022009642F4D145464F4634000C9B002BE7
:1035000000D097E15B460C93DDE602227878164303
:103510000F006D420C930131F8E678786C2800D1E9
:1035200059E180235B001E43013114E780239B0097
:1035300078781E4301310EE77878682800D150E191
:10354000802301311E4306E7672800D1C2E04728E7
:1035500000D134E1452800D134E107210C9B0D9ABC
:1035600007338B4319000496039502920CC90B98FC
:10357000009201930C91220053460A99FFF7CCFB6D
:103580000400A0E6462800D1A8E007210C9B0D9A74
:1035900007338B4319000496039502920CC90B98CC
:1035A000009201930C91220053460A99FFF77AF991
:1035B000040088E679320010EC1E00206C6D0010CB
:1035C000B06D0010FC6D00104190000022005346C9
:1035D00025200A990B9DA847013474E60C9B0433FF
:1035E0009B46631C9846B60700D4FFE00C9B220064
:1035F00018780A9953460B9EB0476419012D00D8DC
:1036000049E245460B9EB8460A9F2A0053460135BB
:1036100039002020B047A542F7D1474672E7DB4B7F
:1036200038780B9300239946002800D03DE600240B
:10363000C6E66F2855D000D8BCE21023782800D108
:103640009EE09E430A239C4600230F930A339B4629
:103650004DE000218A0052185200013311181878E9
:1036600030390200303A092AF4D90D911F00591C53
:1036700050E60C9BB87804CB0237D143C9170A40F7
:103680000D920C93791C45E61023300098431133BA
:103690001843802380463000DB0018401E4200D1D2
:1036A000C0E643460693082305930D9B220004932E
:1036B00010230393002302935B4601931AAB0093FC
:1036C0000A9953460B98FEF7F1FF0C950400FAE5B2
:1036D0000139D4E680231B011E433EE720231E430D
:1036E00053E708239C4600230F9308339B4680230F
:1036F0003000DB0018401E4200D11AE10D233100DA
:10370000994380230A009B001A409146194200D039
:10371000C3E180230A005B001A4090460C9A0432F1
:103720000F92194200D08FE24B0600D597E10B06AD
:1037300000D4E5E20C9B1B8899464B46002B00D039
:1037400005E210339943002800D100E20023984697
:103750000D9B069104935B4603930023059502930A
:103760004346D9E0582808D0622878D102239C46E5
:1037700000230F9302339B46B9E720231E43103BDF
:103780009C4600230F9310339B46B0E702231A0098
:1037900032400C92334200D105E20C934346B946C5
:1037A0000B9E0A9FA8461D1B220053463900013478
:1037B000B047285D0028F7D145464F469EE6802356
:1037C0001B011E4320231E43C7E662460D9242465C
:1037D0009B1A0F936AE6C0239B00B8781E43F91C1E
:1037E000B9E5C023B8781E43F91CB4E5012D00D813
:1037F0004AE1631E9946A9444B4652462600A1461B
:10380000BA461C001700A8460B9D32003B0001364B
:1038100020200A99A847A642F7D13B0057469A466E
:103820004C460C9B320018780A9953460B9D444431
:10383000A84767E6A0460F9B9D4200D862E62C1978
:103840000B9E4546B8460A9FE41A2A0053460135A6
:1038500039002020B047A542F7D1474652E68023E1
:103860003200DB001A4090461E4200D1F3E01121E5
:103870008E43B4469846802362469B001A40934686
:1038800062461A4259D180235B001A4091460C9A35
:1038900004320F9262461A4200D0A0E163465B06F2
:1038A00000D5D4E063461B0600D412E20C9B002234
:1038B0009B5ED8171918414089B2DA0F0C92002B81
:1038C00000D187E188461F2612ABBB461495F71836
:1038D00045464E46E046A14606E028000A21FDF78F
:1038E000F3FF0500202E08D00A212800FDF7ECFF89
:1038F00001363031B955092DEFD84C46C446B14692
:103900005F46149D634606930D9B059504930A2319
:1039100003930C9B02934B4601931AAB2200009336
:103920000A9953460B98FEF7C1FE0F9B04000C93B7
:10393000C9E40C2331009943E3E6082207219146AC
:103940000C9B07338B4399444A460ACB08000C92E0
:10395000DA0F9346184300D085E00023994643468A
:10396000002B2FD1002200231092119300231F2639
:10397000994612ABF6185B461495BB46E0463700F5
:103980000F934E46A146109C119D05E001260010A4
:1039900004000D00202E0CD00A2200232000290054
:1039A000FDF7D0FF01363032BA55002DF0D1092C89
:1039B000EED80F9B109411955F464C46C446B14615
:1039C0009B46149D634606930D9B059504930A231D
:1039D00003935B4602934B4601931AAB220000937C
:1039E0000A9953460B98FEF761FE04006BE40F9BA7
:1039F0009D4200D896E18023DB000C930F9B2E198B
:103A0000F61A43460F930D9BA84699465346BA466D
:103A10001F000B9D22003B00013420200A99A8477B
:103A2000B442F7D10F9B454698464B460D933B0059
:103A300057469A4643461878002800D162E56B1C29
:103A40000F930C9B002B00D1A8E600233DE50C9BB7
:103A50001B78190031E710239E43B4460BE70C9BFB
:103A60001B78994669E6DA17129213924A4010922F
:103A7000129813990A005A401192109A119B121A27
:103A80008B411092119371E70C9B220018780A99D0
:103A900053460B9CA047444634E50822072690462F
:103AA0000C9B0733B343984442460C921A685B68F8
:103AB000149208931300089A134305D110339943C5
:103AC00000239846002838D161208B0600D541207C
:103AD00000231F2698465A4612ABF6180300189288
:103AE0000F9A0A3BB14616951794199744466646B5
:103AF00090469B46149F089D159103E007000D001A
:103B0000202C13D03200002338002900FDF71AFFC3
:103B10005B46D2B2D318092A01D8130030334A4683
:103B200001341355A845E9D1BE42E7D9189BA046F8
:103B30009B461599169D179C199F0D9B0691049302
:103B40005B460393002305950293434644E76120B7
:103B50008B0600D541201F2612ABF21803000A3B4A
:103B60000C934B464646A146A8461C005D46149160
:103B7000BB46170002E00400202E0DD029002000D3
:103B8000FDF7A2FE0C9BCB18092901D80B0030339E
:103B90000136BB55AC42EED25F464C46AB4614995B
:103BA0004546B046D4E50F9B9D4200D926E7013338
:103BB0000F93F3E5102332009A439446692800D00E
:103BC000A2E080233200DB001A4090461E4200D162
:103BD00051E64CE64346002B00D093E673E60C9B7F
:103BE0001B68DA0F002B70D0D9175B184B40984632
:103BF0001F2612ABF618A14614955C464546BB46F7
:103C0000E04637000C9206E028000A21FDF75CFE32
:103C10000500202C08D00A212800FDF755FE0134AC
:103C200030313955092DEFD85F46C446A3464C467E
:103C3000149D0C9A634606930D9B059504930A23E5
:103C4000029203935B4667E60C9B1B689846002B29
:103C500003D11033994300282DD161208B0600D564
:103C600041201F2612ABF61803000A3B4A460C936C
:103C7000149143463100A846A1465E461400BB4657
:103C80001D000F0002E00500202C0DD0310028009F
:103C9000FDF71AFE0C9BCB18092901D80B00303315
:103CA00001343B55B542EED223005F464C464546B3
:103CB000B346994614990D9B069104935B46039372
:103CC0000023059502934B4626E64346002BB1D1CF
:103CD0008EE70C9B1B68D81719184140EDE580232F
:103CE0003200DB001A400F921E420FD00230020059
:103CF00032400F92304219D00023A0460F939AE52C
:103D00000C9B1B68994618E516009BE402231A00D9
:103D100032400C92334200D08CE5002D00D06DE68D
:103D2000FFF7F0FB01330F93FFF7D0FB0C93F4E7A1
:103D300000B585B003910121029000930348130060
:103D40004A4202A9FFF798FA05B000BD9528001075
:103D500010B5094A0300146884B0002C08D0012271
:103D600000910648524203A9A047012004B010BDAB
:103D700000F0C4F90020F9E7EC1E002085280010AF
:103D800000BEFDE710B5FFF7FBFFC04670B5FDF7BD
:103D90004DFC074D074EB54209D20024013E761B6B
:103DA000B608013608CD01349847B442FAD170BD47
:103DB000046B00100C6B0010030010B5080011001C
:103DC0001B68984710BDC046F8B5437D07000D003D
:103DD0001600002B38D0002A1ADD0B780A2B18D0D9
:103DE0000020012E09D0012421006B5C01340A2B34
:103DF0001AD0B442F8D1864203DD311A3B68281844
:103E00009847AD19013D2B780D3B5A4253413B7504
:103E1000F8BD037D002BE3D102210E483B68984793
:103E2000012EEED00120DEE76B1E5B5C0D2BE0D097
:103E3000884203DA091A3B68281898470548022186
:103E40003B6898472000D4E7036811002800984792
:103E5000DEE7C046586F0010F0B5C6460B68070095
:103E60000D0000B5802B06D05A1C2A60ED182F716A
:103E700080BCB846F0BD0F4B1C68002C16D00B1D43
:103E800098460D4E02E02469002C0FD02368002BC9
:103E9000F9D03368002B01D0A342F4D12000414671
:103EA0002A68FFF791FF2469002CEFD1012200233B
:103EB000DBE7C046E01A0020E81A0020F0B54646CD
:103EC000D6464F46C0B582B090461C0006000D0095
:103ED000FDF762F900232F4A12184B41002B02DA3A
:103EE00001222D4B52422D4908008A4602F0C4FDA2
:103EF00081466B1C03D1300002F054FD0500002CFC
:103F000027D0274F274B1C68002C18D04346002B86
:103F100021D1254B984602E02469002C0FD023685C
:103F2000002BF9D043461B68002B01D09C42F3D1F3
:103F300020002A003100B8472469002CEFD14B46FD
:103F4000002B23D1280002B0E0BCBA46B146A846F7
:103F5000F0BD164FD6E7144B984602E02469002CBA
:103F6000EDD02368002BF9D043461B68002B01D00D
:103F7000A342F3D12A0031002000B8476B460A2241
:103F80002000DA71D91D093AB847E7E7504602F038
:103F900043FDD7E740420F00FFFFFF7F581000208E
:103FA000C93D0010E01A0020E81A0020B93D0010B9
:103FB0000A4A1368002B05D10CE01A001B69103265
:103FC000002B07D08342F8D1002902D11869106074
:103FD000196170470029FCD01060FAE7E01A002050
:103FE00010B500F02BFB10BDF0B54746CE461A4B7E
:103FF00080B51A685B689146984683B0174F184D94
:1040000001AE3C68002C03D115E02469002C12D0CD
:104010002B68002B01D09C42F7D1A368002BF4D071
:104020000121300098470028EFDD307803B0C0BC94
:10403000B946B046F0BD0B4B5A6A904507D89B6A0B
:104040004B4502D302204042F0E79045FAD10120CF
:104050000021FDF7ABF8D4E7106D0010E01A002046
:10406000E81A002000400540F0B5CE46474680B52E
:1040700083B06B460600DD1D2870FDF78DF8002328
:10408000194A12184B41002B02DA0122174B5242F7
:1040900017490800894602F0EFFC164B80461C6861
:1040A000002C14D0144F02E02469002C0FD0236898
:1040B000002BF9D03B68002B01D09C42F4D12000AA
:1040C00001222900FFF780FE2469002CEFD143462E
:1040D000002B05D1300003B0C0BCB946B046F0BDDE
:1040E000484602F099FCF5E740420F00FFFFFF7FD2
:1040F00058100020E01A0020E81A002070B50400D3
:1041000002F050FC01230100050001222000FFF70E
:10411000D5FE084B1C68002C06D06368002B05D028
:1041200098472469002CF8D1280070BD2469002C20
:10413000F3D1F9E7E01A0020F0B5CE46474680B546
:10414000A3B004000E00FDF727F80023264A12183A
:104150004B41002B02DA0122244B5242244802F048
:104160008BFC00232200019380463300214801A9E3
:10417000FFF7DEFD204F019B81463C68002B19D0E4
:10418000002C2FD01D4E02E02469002C0FD0236894
:10419000002BF9D03368002B01D0A342F4D12000CA
:1041A000019A02A9FFF710FE2469002CEFD1002329
:1041B0003C680193002C06D06368002B0CD0984714
:1041C0002469002CF8D14346002B07D1484623B080
:1041D000C0BCB946B046F0BD2469EBE7044802F024
:1041E0001BFCF3E70194EEE740420F00FFFFFF7F67
:1041F00058100020593E0010E01A0020E81A002054
:104200000FB400B583B004A901C90191FFF794FF71
:1042100003B008BC04B018477047C0460022014BE9
:104220001A707047561F00204B790020FF2B0BD1CE
:104230008B79002B08D1CB79012B05D1082A03D922
:10424000024B8A7809301A707047C046561F00200A
:104250000120704710B5012913D112495379107903
:1042600009781B0203430020994200D010BD537807
:10427000012B08D0022BF9D1642200210020FDF788
:104280001FF90120F2E7D37891781B021943480AFD
:10429000DB0501D4012040427F238A05D20F19405B
:1042A000FDF796F9561F0020004870472470001053
:1042B0009446012310B501290AD152780023012A1E
:1042C00006D162461179527912020A43072A01D0B7
:1042D000180010BDA6336146024A01F063FA0300DC
:1042E000F6E7C0467C6F001001230370004870475A
:1042F0005C6F00104B780A781B0213438A7810B564
:1043000012041A43CB781B0613439622D200934221
:1043100000D010BD0022012011004042FDF758F9E5
:10432000024B1860024B19607047C046801A00208B
:10433000841A002010B5024B1878FCF72FF910BD35
:10434000571F0020154B70B51A68002A22D0EFF3D2
:10435000108172B610680028FCD0BFF35F8F002078
:104360000F4A596010701B68BFF35F8F186081F3AC
:104370001088002400250B4E3078FCF703F9002844
:1043800004D1002400252900200070BD3078FCF7FE
:1043900005F9F8E7FA240025A400ECE7101F002037
:1043A000581F0020571F002070B5050000200E0088
:1043B00001F010FB002834D0002001F021FB002880
:1043C0002FD0FCF7E9FE0023174A12184B41002BAF
:1043D00016DB164C200002F04FFB002821D00020F5
:1043E00001F0F8FA00280FD101200021404200F02E
:1043F0000FFD03256D42200002F00EFB280070BD6A
:1044000001220B4B5242E4E7002001F0F9FA0028A8
:10441000EAD029003200002001F0FCFA051EEAD1A2
:10442000E7E703256D42E9E740420F00381F00200F
:10443000FFFFFF7F10B5FCF7AFFE00230D4A1218F7
:104440004B41002B02DA01220B4B52420B4802F087
:1044500013FB00280CD001200021404200F0D8FCC2
:10446000002001F01BFB0028F5D1044802F0D4FA2B
:1044700010BDC04640420F00FFFFFF7F381F0020E5
:10448000F8B5CE46474680B505000C00FCF784FE23
:104490000023344A12184B41002B02DA0122324B1E
:1044A000524232490800884602F0E6FA002803D159
:1044B000C0BCB946B046F8BD002001F08BFA002818
:1044C00048D00026002C41DD294B994613E0A9195C
:1044D000002001F01FFB070001200021404200F0F6
:1044E00097FC002001F0DAFAFCF756FE204BF61993
:1044F00003C3B4422ADD002001F02CFBA71B0200FD
:10450000B84200DD3A00002AE1D1012000214042FA
:1045100000F07EFC002001F0C1FA002001F05AFA00
:10452000002813D0002001F015FB0028E1D1FCF792
:1045300033FE4B460F000CCB002184460D48121869
:104540004B419F4202D8D4D19445D2D9404602F083
:1045500063FAADE700200021054B03C3404602F09B
:104560005BFAA5E740420F00FFFFFF7F381F0020E6
:10457000A812002020A1070030B5002185B02848EE
:1045800002F06AFA00281CD1264B1A68002A16D0BD
:10459000EFF3108172B610680028FCD0BFF35F8F74
:1045A00001242148596002781B68D2B20470BFF31D
:1045B0005F8F0020186081F31088002A17D005B0A3
:1045C00030BD01200021404200F022FC002001F01B
:1045D00017FA0500124802F01FFA002DEFD0134B16
:1045E0001B68002BEBD0124A10689847E7E7FCF7EE
:1045F000BFFB0400FCF7D0FDFA2200239200121842
:104600004B41002B02DA01220A4B52420121029156
:1046100000210191084920000091FCF7ADFBCEE795
:10462000381F0020101F0020581F0020801A002073
:10463000841A0020FFFFFF7F45430010D02310B5F0
:104640001B0684B01C68FCF793FBFCF793FCA042AC
:1046500002D0002004B010BD284B002100201B78A0
:1046600001F060FD26480368002B44D00120FCF7D0
:1046700017F9FF23234C244920701840FBF7A6FFAD
:1046800020780121FBF76CFF0520FBF78FFF002846
:1046900024D1082200211D48FDF7A6FFFCF768FB86
:1046A0000400FCF779FDFA220023920012184B4116
:1046B000002B02DA0122164B524201210291002105
:1046C0000191144920000091FCF756FB0028C0DB43
:1046D00011480121FFF76CFC0120BBE70120FBF72B
:1046E000FDFE01000948FCF73BF9002205200B49BB
:1046F000FBF796FFECE7FCF717F9B7E7D871001066
:10470000381F0020571F002079450010101F00207F
:10471000FFFFFF7F454300102010002035430010AD
:1047200000487047C0700010004870476C7000105F
:1047300010B5040016480378002B20D0002C06D1B9
:10474000144B15484380063BFF3B038010BD052CEE
:104750001CD8124BA400E4580F480123811C013CD3
:1047600004E001330A800231142B0CD0E25C002AF1
:10477000F7D1C022DBB25B0092001343E5E71121C1
:1047800000F016F8DAE7CA239B00DEE70020DDE739
:10479000401F002009040000B81A002054700010C7
:1047A00010B5024800F0F4F810BDC046281F0020E4
:1047B00030B5012900D1BBE0744B01391A781211D0
:1047C00014003034092A00DDB5E00470012900D15D
:1047D000DAE00F221C78224014003034092A00D974
:1047E000ACE04470022900D1CEE05A789446121110
:1047F00014003034092A00DDA3E08470032900D1BD
:10480000C2E064460F22224014003034092A00D945
:104810009AE0C470042900D1B6E09A789446121147
:1048200014003034092A00DD91E00471052900D11B
:10483000AAE064460F22224014003034092A00D92D
:1048400088E04471062900D19EE03025AC46DC7832
:1048500022119444092A00DD7FE062468271072913
:1048600000D191E00F22224014003034092A00D9EF
:1048700077E0C471082900D186E03025AC461C7968
:1048800022119444092A00DD6EE062460272092971
:1048900000D179E00F22224014003034092A67D871
:1048A00044720A2900D16FE03025AC465C792211B0
:1048B0009444092A5FDC624682720B2964D00F227D
:1048C000224014003034092A59D8C4720C295BD014
:1048D0003025AC469C7922119444092A02DD073523
:1048E000AC469444624602730D294DD00F222240FB
:1048F00014003034092A01D93732140044730E29C8
:1049000042D0DA7913111C003034092B01DD373322
:104910001C0084730F2937D00F2313401A0037323D
:10492000092B01D830331A00C27310292CD0103053
:104930000023037030BD3732140046E737321400CD
:104940004FE73732140058E73732140061E7373247
:1049500014006AE73732140073E70735AC46944415
:104960007BE73732140084E70735AC4694448CE784
:104970003732140094E70735AC4694449BE737324E
:104980001400C4720C29A3D14018D1E7281F0020BD
:1049900010B588B004000D2200216846FDF724FE02
:1049A0000D22002104A8FDF71FFE4B236A4668462E
:1049B000137004A90D2202F027F815210822200007
:1049C0006944FDF717FE08B010BDC046F8B500F009
:1049D00047F90C23194DFF22AB6705201849FBF757
:1049E0001FFE184C402200212000FDF7FDFD40274E
:1049F000002301262121144A66702783A2601360D8
:104A000063545F31618445396354104A10496360CF
:104A1000E2602787A1620B606362E26202F004F841
:104A200080239B052E64EB6490230A4A0120EA5000
:104A30008022094B5202DA64F8BDC04600001150D2
:104A400015050020EC1A00208400105000011050C1
:104A50008000105010D001000020115010B501212D
:104A60000520FBF77DFD10BD10B500220021024896
:104A700000F016F910BDC0460C1B0020044B197045
:104A8000002904D080219023024A8902D150704726
:104A9000521F0020002011500B785B0600D0704799
:104AA0004B78052BFBD18A78014B1A60F7E7C0469B
:104AB00000001150F8B5CE464746C87880B580074B
:104AC000830F1800012B61D08B780A799C464B79B3
:104AD0007F211B0213435B055E0D63461940DC0911
:104AE0004B001A191F0063462F4D5201AA189370EC
:104AF00001236340537000231683D370D076B146F0
:104B0000CA00012C31D0294E92198E01B446AC4412
:104B10006646B2601360002931D0254BC900C91820
:104B200071604B463F339B09022836D09B012148D8
:104B300039190268490169180E00CA601E49D31864
:104B400003608B422BD83B195B01ED18EB7E1B49B0
:104B50009B064A4013438022120613436A6813607F
:104B60000120C0BCB946B046F8BD154E92198E0161
:104B7000B446AC446646B2621360002908D10023F3
:104B800064012C1963600F4BE360E9E70020E8E75C
:104B90000A4BC900C9187162C3E7DB01C7E7FCF71C
:104BA0003FFDF268CFE7C046EC1A002084001050A9
:104BB00004001050F41E0020FF0F10500000105091
:104BC000800010500001105010B501F02DFF10BDF5
:104BD0007F2010B508404000C90940181100044A60
:104BE000400180181A0000F05BF8012010BDC0469B
:104BF000EC1A00207F23180000B5084083B00B4258
:104C000004D14B424B41084A013393668022C909C3
:104C10004000064B401840010021C018120101F06D
:104C200043FF03B000BDC04600201150EC1A002025
:104C30007F22130010B50B400A4200D110BDC909F4
:104C40005B005B1804485B01C01800230022034985
:104C5000C37001F029FFF1E7EC1A0020FFF7FFFF16
:104C600080220A4B520410B51A60094B09491A6098
:104C700010000B689843FBD18022002152010648A6
:104C8000FDF7B2FC0922054B5A6710BD00E0004059
:104C900000F0004008C0004000001050000011501B
:104CA000002310B5C3820133828283760161040040
:104CB00001F0F2FE002804D080219023074A8902E7
:104CC000D150200001F0F8FE002802D00123237704
:104CD00010BD200001F0D8FEFAE7C04600201150B8
:104CE0007047C0467047C04600207047002070479C
:104CF0007047C0467047C0467047C0467047C046C0
:104D0000024B5878431E9841C0B270479815002056
:104D1000024B18784007C00F7047C0469815002016
:104D2000F0B5D6464F464646C0B52E4B814698460E
:104D30001B788A46FF2B4ED100293ED000215422F9
:104D40002948FDF751FC0022284C294B20001A70FD
:104D5000FBF7EAFD274B1C60274C2000143CFBF7B7
:104D6000F1FD200001F0DAFD244B254D1C60254BA0
:104D7000002B04D02800FFF7B7FA234B186000245B
:104D800000232A78214F204E0FE0336862019B18E0
:104D9000002B12D05B68002B0FD098472A78013483
:104DA000E4B2511C2300A14209DBA242EDD89B1AB8
:104DB0005B01DB195B68002BEFD100200CE0424661
:104DC0004B46514648461370FFF700FE0028F4D0CA
:104DD0004846FFF743FE0120E0BCBA46B146A8466C
:104DE000F0BDC046541000209815002090150020FA
:104DF000531F0020EC1500204C100020F01500205F
:104E0000511F0020E9420010B01400207C710010F6
:104E1000F0B5DE4657464E464546E0B5C64B91B026
:104E200002931B78FF2B00D13BE1C44BC44E1F0003
:104E3000C44B0DAC0193C44B009335686A69EFF322
:104E4000108172B61368002BFCD0BFF35F8FA9618D
:104E50002800210001F098FB6A69AB69BFF35F8FFE
:104E60000021116083F31088002800D119E16378D4
:104E7000082BE2D89B00FB589F466368002BDCD0D0
:104E8000A0689847D9E77F222179AE4D0A405300A8
:104E9000EB189846C8098044404601233030057914
:104EA0009D430571057903339D430571002A00D1A7
:104EB000FEE04346A54A1B7D1278934200D3EDE005
:104EC000A34A5B011568ED18002D00D1E9E0A36845
:104ED00062792078AD69A847AFE79E4B1A78002A1F
:104EE00000D1DEE01A78013A1A701B78002BA4D1A9
:104EF0000122944D01212B78042013432B7034237D
:104F0000EA5C8A43EA54EA5C8243EA540133EA5C8D
:104F10008A43EA54EA5C8243EA54237800209B46A1
:104F200000F09AFC602223791A40602A00D1EEE05A
:104F3000402A00D1F4E0DB06DB0E012B00D111E1A9
:104F4000022B00D1C6E0002B00D0E0E0202A00D1E7
:104F50001CE2002A00D0DAE06379092B00D9D6E000
:104F60007D4A9B00D3589F46764D2B78DB0700D4B3
:104F700063E7FFF7C3FE60E7019BDB78DB0700D444
:104F80005BE76068FFF7AEFE57E76E4D2B78DB07F7
:104F900000D452E728780007C00FFFF7ADFE4CE7BA
:104FA0002378694999468B46684B694998468A46F1
:104FB00039001A7847460023B04600254E468946F8
:104FC00010E053461B686A019B18002B00D175E066
:104FD000DB68300098473A780135EDB2511C2B0060
:104FE0008D4243DC9542ECD39B1A5B015B44EFE7B7
:104FF000237857499946554B8A4698463100BB4617
:105000004E461A7800250023474689460FE053464E
:105010001B686A019B18002B54D0DB68300098474E
:105020003A780135EDB2511C2B008D4206DC9542D9
:10503000EDD39B1A009A5B01D318EEE7019D542231
:1050400000212800FDF7D0FA1022FF214348FDF788
:10505000CBFA28002022FF2114304E465F46FDF790
:10506000C3FA00F0EFFBFFF745FEE6E6354D5422AC
:1050700000212800FDF7B8FA1022FF21281DFDF7B6
:10508000B3FA28002022FF21143046464F46FDF790
:10509000ABFA00F0D7FB2379AB70CEE6501C9842F8
:1050A00013DA11B0F0BCBB46B246A946A046F0BD2B
:1050B000A3686279207800F0E3FBBEE646464F46DF
:1050C000204DE6E74E465F46CBE71F4D9B1A5B013E
:1050D0005D19FCE67023217A0B4218D1C80982467B
:1050E0000F330B405B0098461848EB1853441B7D68
:1050F00000789946834268D215485B010068814672
:105100009944002A00D163E14B46002B6AD12078F4
:105110000021FFF76FFD80212078FFF76BFD8CE603
:105120000F4800F099FB012158460EAAFFF7C0F87E
:10513000002800D081E6EAE754100020D470001067
:10514000F0150020981500207C710010511F0020E0
:10515000B0140020531F0020F87000109C15002090
:10516000B1420010237A22890F2BD0D8FF2313409D
:10517000CF4AEB181B791578AB423ED3691C994294
:10518000C5DB5D1BCB4B6D01ED18686900F064FB5E
:10519000012158466B690EAA9847002800D04CE6BA
:1051A0006022150023791D401A42B0D163790A3B71
:1051B000012BACD800F050FB63790A2B00D199E1A8
:1051C00058460EA900F0D8FA37E6431C4B4500DAE2
:1051D000F9E04B461B1A5B019946B6488144002A08
:1051E00000D1F5E04B46586900F036FB4B460121F3
:1051F00058465B690EAA98479AE7AF4A5B01156863
:10520000ED18002DC1D182E7A37999466B789945B5
:10521000D6D06B78002B00D035E14B466B70002B5D
:1052200000D12DE148460138C0B2FFF77DFA0028D1
:1052300000D17EE143780793022B00D079E101226F
:10524000C179B1468B11491113400A403021120136
:105250005B0113432A78A8468A4313432B70092322
:105260009A4682445646BA46C37882781B02134354
:10527000C31805938E4B04938E4B08938E4B099362
:105280008E4B0A93059BB34200D855E173780122F7
:105290000B2B03D13378F278F6187378042B00D0F7
:1052A00044E1059B00279B1B9BB20693049B0B923A
:1052B0001D78002303931BE0099A7B011568ED1804
:1052C000002D00D132E1310058462B69069A9847EB
:1052D0008446082803D9069A824200D313E1049B2E
:1052E00001371D78FFB26B1C03979F4200DD1DE163
:1052F000BD42E1D8039B5D1B089B6D015D19E2E790
:105300006B780CAA02321370584601230EA900F0E4
:1053100049FA92E5E088030AC0B20F2B00D9F6E6FD
:1053200067499A008A5897460EA800F09BFA58469B
:10533000A179FFF799FB02222B7813432B707CE5B0
:10534000E388012B00D0E2E608222B7858469343ED
:105350000EA92B7000F010FA6FE5022029780CAB33
:105360009A1C8B068908DB0F01400B4313805846BB
:1053700002230EA900F016FA5FE5E388012B00D0A6
:10538000C5E608222B7813432B7019E7237A22896C
:105390000F2B00D9BBE6FF231340EB181D79444BBC
:1053A0001B789D4228D2444B6D011B685D19002D6E
:1053B00000D1ACE6686900F04FFA012158466B69EC
:1053C0000EAA9847B4E6002A00D0A0E6002399462A
:1053D00062790220130003928343012B15D0002A27
:1053E00000D094E62B004344534430331B790CAA7D
:1053F0009B07DB0F0232B9E75A1CAA4200DA86E6A5
:10540000ED1A2C4B6D01ED18D4E7E388002B12D177
:10541000029B1878039B012B23D0FFF7EBFB43463D
:105420000221EB18534430331A790A4301211A71CF
:105430001A790A431A714B46002B00D1FDE45869D2
:1054400000F00AFA4B4601215B690EAA58469847BC
:10545000002000F001FA3523EB5CDB0700D5ECE41B
:10546000AEE6FFF7E5FB43460221EB185344303329
:105470001A798A431A711A7903998A431A71DAE7F9
:10548000FFF738FC9CE600215846FFF7F7FA58462C
:10549000FFF79AFBAB7807490393054B04919846B5
:1054A0001A7800230449AA4605911D001BE0C04656
:1054B000511F00207C710010B0140020AC1500209A
:1054C00020710010059B6A011B689B18002B4CD0B3
:1054D000DB685846984743461A780135EDB2511CAF
:1054E0002B008D422DDC9542ECD39B1A049A5B0174
:1054F000D318EDE70CAB9A1C584601230EA9157082
:1055000000F050F999E40B9A012A4ED0002A3CD0C1
:105510000023B07804E00133DBB20F71934234D240
:10552000C118C9B241440D79FF2DF4D04E4645460D
:10553000574600236B70EAE54E465746FFF7D8FB07
:105540003EE65546542200212800FDF74DF8102272
:10555000FF21281DFDF748F828002022FF211430E4
:10556000FDF742F8039BAB7057E65546FAE7FEF7A6
:105570009BFE021E00D1CAE5D37891781B020B4333
:1055800058460EA900F00EF9D2E565463B002A0008
:1055900031000A9800F06AFE049B039A1B78761982
:1055A0000133934200DB6DE6C0E7174B296999424E
:1055B000AED1079AACE7FFF797FB021E00D1A6E534
:1055C000584613780EA900F0EDF8B1E52189FFF7F0
:1055D000AFF8021EF4D19AE5022B0FD0FFF786FB3D
:1055E000021EC9D193E5FFF79BF8021E00D18EE59C
:1055F000122358460EA900F0D5F899E5FFF794F864
:10560000021EB9D183E5C046515C0010F0B54F468B
:105610004646D646C0B50C0016001F0082B0002AD0
:105620003AD0702398461D4B002599461C4B9A464C
:105630001AE04B461B78200001935346997800F0FE
:10564000DBFD00281CD021000198FFF733FA002869
:1056500016D0A378DA09012A19D00A9A01351370F5
:10566000B54219DA2378E4186378052B08D1E3787A
:105670009B079B0FBB4203D14246A3781A42D8D066
:10568000002002B0E0BCBA46B146A846F0BD0B9A75
:1056900001351370B542E5DB0120F2E7541000201C
:1056A00098150020702270B58B780C001A4201D03A
:1056B000002070BD064B20001D78064B997800F045
:1056C0009BFD0028F4D021002800FFF7F3F9F0E754
:1056D00054100020981500207F20074B10B51A6841
:1056E0000840CB0934334000C018044B1100C018E7
:1056F00000F03EFD10BDC046EC15002098150020BE
:105700007F20074B10B51A680840CB09343340009E
:10571000C018044B1100C01800F052FD10BDC04667
:10572000EC1500209815002070B57F24C809844628
:105730000C400F4864000419644430342079C007D9
:1057400001D5002070BD0B480125007884462079E2
:10575000284320716046FFF73BFA0028F2D101226E
:105760002379934323712379033293432371E8E729
:10577000981500205410002070B5094C060008222E
:1057800020000D00FCF736FF00238021E360A360BA
:105790002B783000994300220023FFF7C5FF70BD2E
:1057A00078150020F0B5C646244C17008046082224
:1057B000200000B50D001E00FCF71CFF0023A760B1
:1057C000E381EB79AA791B0213431A1CB34200D977
:1057D000321C96B2A281002B0CD0002E15D0002FC7
:1057E0002AD0402E1AD8237896B27F2B1BD80021BE
:1057F000134A0EE080212B78002299434046002373
:10580000FFF792FF80BCB846F0BD7F2300222178CD
:10581000994333004046FFF787FFF3E740222378A0
:1058200096B27F2BE3D9064C320039002000FCF7FA
:10583000E1FE80212200ECE70020E3E7781500205C
:105840003815002010B5142200210248FCF7CCFEC8
:1058500010BDC04678150020014B18617047C04646
:105860007815002010B5054C010008222000FCF737
:10587000C1FE0023A360E36010BDC0467815002080
:1058800070B5374C1D0023780600DA09C9098A4231
:1058900010D00020002D00D070BD21003000FFF797
:1058A000FBF82369002B03D0220003213000984726
:1058B0000120F1E77F2B06D8A0680028ECD02A0051
:1058C0002849FCF797FEE289A1685219E38892B251
:1058D0004919E281A160934214D03F2D12D9A389C6
:1058E000981A051C80B2402828D82078ADB27F28AD
:1058F00026D800219A4230D01A4A2B003000FFF7F8
:1059000013FFC9E72369002B05D0220002213000D4
:105910009847002808D0802123780022994330003E
:105920000023FFF701FFB7E700213000FFF762F91E
:1059300030008021FFF75EF90120ADE74025D4E774
:105940009A4207D0074C2A002000FCF753FE802122
:105950002200D2E780210022CFE70022CDE7C04617
:10596000781500203815002070B50400FFF7C8F93D
:10597000002800D170BDFFF7CBF90028FAD1C82369
:105980006343124A2500D418E1780029F2D010337D
:105990009E18300000F0E2FD3F28EBD90020E178AE
:1059A000FFF79AFE0028E5D0300000F0D7FDE1783F
:1059B0003F2807D9064BEA01D21800204023FFF701
:1059C000B3FED7E70020FFF79BFED3E7601000206F
:1059D000B414002010B50400FFF792F9002801D19B
:1059E000002010BDFFF794F90028F9D1C8226243C6
:1059F000024B01309B181B791840F2E76010002021
:105A0000C82310B543430248181800F089FD10BDA3
:105A100070100020F8B5C82343431D4D1033EE1815
:105A2000802304005B029A4200D31A4A300092B2EB
:105A300000F0F8FD0700FFF763F9002801D13800F6
:105A4000F8BDFFF765F90028F9D1C8236343ED18C5
:105A5000EB78002BF3D0300000F080FD3F28EED92A
:105A60000020E978FFF738FE0028E8D0300000F089
:105A700075FDE9783F2807D9074BE201D2180020CD
:105A80004023FFF751FEDAE70020FFF739FED6E7A3
:105A900060100020FFFF0000B4140020F8B50400DF
:105AA000FFF72EF9002801D10020F8BDFFF730F9EB
:105AB0000028F9D1C82325005D432B00134E243361
:105AC000F718380000F02CFD0028EDD075190020E3
:105AD000A978FFF701FE0028E6D00D4AE3019C18E3
